{
  "_format": "hh-sol-artifact-1",
  "contractName": "GuestBook",
  "sourceName": "contracts/GuestBook.sol",
  "abi": [
    {
      "inputs": [],
      "stateMutability": "nonpayable",
      "type": "constructor"
    },
    {
      "anonymous": false,
      "inputs": [
        {
          "indexed": true,
          "internalType": "address",
          "name": "sender",
          "type": "address"
        },
        {
          "indexed": false,
          "internalType": "string",
          "name": "name",
          "type": "string"
        },
        {
          "indexed": false,
          "internalType": "string",
          "name": "message",
          "type": "string"
        }
      ],
      "name": "NewMessage",
      "type": "event"
    },
    {
      "inputs": [],
      "name": "getAllMessages",
      "outputs": [
        {
          "components": [
            {
              "internalType": "address",
              "name": "sender",
              "type": "address"
            },
            {
              "internalType": "string",
              "name": "message",
              "type": "string"
            },
            {
              "internalType": "string",
              "name": "name",
              "type": "string"
            },
            {
              "internalType": "uint256",
              "name": "timestamp",
              "type": "uint256"
            }
          ],
          "internalType": "struct GuestBook.Message[]",
          "name": "",
          "type": "tuple[]"
        }
      ],
      "stateMutability": "view",
      "type": "function"
    },
    {
      "inputs": [
        {
          "internalType": "uint256",
          "name": "index",
          "type": "uint256"
        }
      ],
      "name": "getMessage",
      "outputs": [
        {
          "internalType": "address",
          "name": "sender",
          "type": "address"
        },
        {
          "internalType": "string",
          "name": "name",
          "type": "string"
        },
        {
          "internalType": "string",
          "name": "message",
          "type": "string"
        },
        {
          "internalType": "uint256",
          "name": "timestamp",
          "type": "uint256"
        }
      ],
      "stateMutability": "view",
      "type": "function"
    },
    {
      "inputs": [],
      "name": "getTotalMessages",
      "outputs": [
        {
          "internalType": "uint256",
          "name": "",
          "type": "uint256"
        }
      ],
      "stateMutability": "view",
      "type": "function"
    },
    {
      "inputs": [
        {
          "internalType": "uint256",
          "name": "",
          "type": "uint256"
        }
      ],
      "name": "messages",
      "outputs": [
        {
          "internalType": "address",
          "name": "sender",
          "type": "address"
        },
        {
          "internalType": "string",
          "name": "message",
          "type": "string"
        },
        {
          "internalType": "string",
          "name": "name",
          "type": "string"
        },
        {
          "internalType": "uint256",
          "name": "timestamp",
          "type": "uint256"
        }
      ],
      "stateMutability": "view",
      "type": "function"
    },
    {
      "inputs": [],
      "name": "owner",
      "outputs": [
        {
          "internalType": "address",
          "name": "",
          "type": "address"
        }
      ],
      "stateMutability": "view",
      "type": "function"
    },
    {
      "inputs": [
        {
          "internalType": "string",
          "name": "_name",
          "type": "string"
        },
        {
          "internalType": "string",
          "name": "_message",
          "type": "string"
        }
      ],
      "name": "postMessage",
      "outputs": [],
      "stateMutability": "nonpayable",
      "type": "function"
    }
  ],
  "bytecode": "0x6080604052348015600f57600080fd5b5033600160006101000a81548173ffffffffffffffffffffffffffffffffffffffff021916908373ffffffffffffffffffffffffffffffffffffffff1602179055506112ab806100606000396000f3fe608060405234801561001057600080fd5b50600436106100625760003560e01c80630d80fefd14610067578063147e91081461009a57806349819eba146100b857806353f5e380146100d457806386f79edb146100f25780638da5cb5b14610125575b600080fd5b610081600480360381019061007c91906108f4565b610143565b6040516100919493929190610a01565b60405180910390f35b6100a26102b3565b6040516100af9190610a54565b60405180910390f35b6100d260048036038101906100cd9190610ba4565b6102bf565b005b6100dc61047c565b6040516100e99190610db0565b60405180910390f35b61010c600480360381019061010791906108f4565b61065f565b60405161011c9493929190610a01565b60405180910390f35b61012d610884565b60405161013a9190610dd2565b60405180910390f35b6000818154811061015357600080fd5b90600052602060002090600402016000915090508060000160009054906101000a900473ffffffffffffffffffffffffffffffffffffffff169080600101805461019c90610e1c565b80601f01602080910402602001604051908101604052809291908181526020018280546101c890610e1c565b80156102155780601f106101ea57610100808354040283529160200191610215565b820191906000526020600020905b8154815290600101906020018083116101f857829003601f168201915b50505050509080600201805461022a90610e1c565b80601f016020809104026020016040519081016040528092919081815260200182805461025690610e1c565b80156102a35780601f10610278576101008083540402835291602001916102a3565b820191906000526020600020905b81548152906001019060200180831161028657829003601f168201915b5050505050908060030154905084565b60008080549050905090565b6000815111610303576040517f08c379a00000000000000000000000000000000000000000000000000000000081526004016102fa90610e99565b60405180910390fd5b6000825111610347576040517f08c379a000000000000000000000000000000000000000000000000000000000815260040161033e90610f05565b60405180910390fd5b600060405180608001604052803373ffffffffffffffffffffffffffffffffffffffff16815260200183815260200184815260200142815250908060018154018082558091505060019003906000526020600020906004020160009091909190915060008201518160000160006101000a81548173ffffffffffffffffffffffffffffffffffffffff021916908373ffffffffffffffffffffffffffffffffffffffff160217905550602082015181600101908161040591906110d1565b50604082015181600201908161041b91906110d1565b506060820151816003015550503373ffffffffffffffffffffffffffffffffffffffff167ffb9ecf828a1514c51b8fee52c9db5e8197b23482133acbe571f444bb31cb3da683836040516104709291906111a3565b60405180910390a25050565b60606000805480602002602001604051908101604052809291908181526020016000905b8282101561065657838290600052602060002090600402016040518060800160405290816000820160009054906101000a900473ffffffffffffffffffffffffffffffffffffffff1673ffffffffffffffffffffffffffffffffffffffff1673ffffffffffffffffffffffffffffffffffffffff16815260200160018201805461052990610e1c565b80601f016020809104026020016040519081016040528092919081815260200182805461055590610e1c565b80156105a25780601f10610577576101008083540402835291602001916105a2565b820191906000526020600020905b81548152906001019060200180831161058557829003601f168201915b505050505081526020016002820180546105bb90610e1c565b80601f01602080910402602001604051908101604052809291908181526020018280546105e790610e1c565b80156106345780601f1061060957610100808354040283529160200191610634565b820191906000526020600020905b81548152906001019060200180831161061757829003601f168201915b50505050508152602001600382015481525050815260200190600101906104a0565b50505050905090565b60006060806000808054905085106106ac576040517f08c379a00000000000000000000000000000000000000000000000000000000081526004016106a390611226565b60405180910390fd5b60008086815481106106c1576106c0611246565b5b90600052602060002090600402016040518060800160405290816000820160009054906101000a900473ffffffffffffffffffffffffffffffffffffffff1673ffffffffffffffffffffffffffffffffffffffff1673ffffffffffffffffffffffffffffffffffffffff16815260200160018201805461074090610e1c565b80601f016020809104026020016040519081016040528092919081815260200182805461076c90610e1c565b80156107b95780601f1061078e576101008083540402835291602001916107b9565b820191906000526020600020905b81548152906001019060200180831161079c57829003601f168201915b505050505081526020016002820180546107d290610e1c565b80601f01602080910402602001604051908101604052809291908181526020018280546107fe90610e1c565b801561084b5780601f106108205761010080835404028352916020019161084b565b820191906000526020600020905b81548152906001019060200180831161082e57829003601f168201915b50505050508152602001600382015481525050905080600001518160400151826020015183606001519450945094509450509193509193565b600160009054906101000a900473ffffffffffffffffffffffffffffffffffffffff1681565b6000604051905090565b600080fd5b600080fd5b6000819050919050565b6108d1816108be565b81146108dc57600080fd5b50565b6000813590506108ee816108c8565b92915050565b60006020828403121561090a576109096108b4565b5b6000610918848285016108df565b91505092915050565b600073ffffffffffffffffffffffffffffffffffffffff82169050919050565b600061094c82610921565b9050919050565b61095c81610941565b82525050565b600081519050919050565b600082825260208201905092915050565b60005b8381101561099c578082015181840152602081019050610981565b60008484015250505050565b6000601f19601f8301169050919050565b60006109c482610962565b6109ce818561096d565b93506109de81856020860161097e565b6109e7816109a8565b840191505092915050565b6109fb816108be565b82525050565b6000608082019050610a166000830187610953565b8181036020830152610a2881866109b9565b90508181036040830152610a3c81856109b9565b9050610a4b60608301846109f2565b95945050505050565b6000602082019050610a6960008301846109f2565b92915050565b600080fd5b600080fd5b7f4e487b7100000000000000000000000000000000000000000000000000000000600052604160045260246000fd5b610ab1826109a8565b810181811067ffffffffffffffff82111715610ad057610acf610a79565b5b80604052505050565b6000610ae36108aa565b9050610aef8282610aa8565b919050565b600067ffffffffffffffff821115610b0f57610b0e610a79565b5b610b18826109a8565b9050602081019050919050565b82818337600083830152505050565b6000610b47610b4284610af4565b610ad9565b905082815260208101848484011115610b6357610b62610a74565b5b610b6e848285610b25565b509392505050565b600082601f830112610b8b57610b8a610a6f565b5b8135610b9b848260208601610b34565b91505092915050565b60008060408385031215610bbb57610bba6108b4565b5b600083013567ffffffffffffffff811115610bd957610bd86108b9565b5b610be585828601610b76565b925050602083013567ffffffffffffffff811115610c0657610c056108b9565b5b610c1285828601610b76565b9150509250929050565b600081519050919050565b600082825260208201905092915050565b6000819050602082019050919050565b610c5181610941565b82525050565b600082825260208201905092915050565b6000610c7382610962565b610c7d8185610c57565b9350610c8d81856020860161097e565b610c96816109a8565b840191505092915050565b610caa816108be565b82525050565b6000608083016000830151610cc86000860182610c48565b5060208301518482036020860152610ce08282610c68565b91505060408301518482036040860152610cfa8282610c68565b9150506060830151610d0f6060860182610ca1565b508091505092915050565b6000610d268383610cb0565b905092915050565b6000602082019050919050565b6000610d4682610c1c565b610d508185610c27565b935083602082028501610d6285610c38565b8060005b85811015610d9e5784840389528151610d7f8582610d1a565b9450610d8a83610d2e565b925060208a01995050600181019050610d66565b50829750879550505050505092915050565b60006020820190508181036000830152610dca8184610d3b565b905092915050565b6000602082019050610de76000830184610953565b92915050565b7f4e487b7100000000000000000000000000000000000000000000000000000000600052602260045260246000fd5b60006002820490506001821680610e3457607f821691505b602082108103610e4757610e46610ded565b5b50919050565b7f4d6573736167652063616e6e6f7420626520656d707479000000000000000000600082015250565b6000610e8360178361096d565b9150610e8e82610e4d565b602082019050919050565b60006020820190508181036000830152610eb281610e76565b9050919050565b7f4e616d652063616e6e6f7420626520656d707479000000000000000000000000600082015250565b6000610eef60148361096d565b9150610efa82610eb9565b602082019050919050565b60006020820190508181036000830152610f1e81610ee2565b9050919050565b60008190508160005260206000209050919050565b60006020601f8301049050919050565b600082821b905092915050565b600060088302610f877fffffffffffffffffffffffffffffffffffffffffffffffffffffffffffffffff82610f4a565b610f918683610f4a565b95508019841693508086168417925050509392505050565b6000819050919050565b6000610fce610fc9610fc4846108be565b610fa9565b6108be565b9050919050565b6000819050919050565b610fe883610fb3565b610ffc610ff482610fd5565b848454610f57565b825550505050565b600090565b611011611004565b61101c818484610fdf565b505050565b5b8181101561104057611035600082611009565b600181019050611022565b5050565b601f8211156110855761105681610f25565b61105f84610f3a565b8101602085101561106e578190505b61108261107a85610f3a565b830182611021565b50505b505050565b600082821c905092915050565b60006110a86000198460080261108a565b1980831691505092915050565b60006110c18383611097565b9150826002028217905092915050565b6110da82610962565b67ffffffffffffffff8111156110f3576110f2610a79565b5b6110fd8254610e1c565b611108828285611044565b600060209050601f83116001811461113b5760008415611129578287015190505b61113385826110b5565b86555061119b565b601f19841661114986610f25565b60005b828110156111715784890151825560018201915060208501945060208101905061114c565b8683101561118e578489015161118a601f891682611097565b8355505b6001600288020188555050505b505050505050565b600060408201905081810360008301526111bd81856109b9565b905081810360208301526111d181846109b9565b90509392505050565b7f496e76616c696420696e64657800000000000000000000000000000000000000600082015250565b6000611210600d8361096d565b915061121b826111da565b602082019050919050565b6000602082019050818103600083015261123f81611203565b9050919050565b7f4e487b7100000000000000000000000000000000000000000000000000000000600052603260045260246000fdfea2646970667358221220e8961e7d586b25b65885b7c5be5e9cfcfedc6f44a746d83ec421337d074d2ee964736f6c634300081b0033",
  "linkReferences": {},
  "deployedLinkReferences": {}
}